:0400000058EF00F0C5
:100008005B82FACF01F0FBCF02F0D9CF03F0DACF51
:1000180004F0F2AC12EF00F014EF00F04EEF00F035
:100028009DA819EF00F01BEF00F031EF00F09EA83B
:1000380020EF00F022EF00F031EF00F002D82FEFB0
:1000480000F00500FA6E0001FC51FD6EFD51FE6ED8
:10005800FF6AFA5012004EEF00F09DAA36EF00F04A
:1000680038EF00F04EEF00F09EAA3DEF00F03FEFB2
:1000780000F04EEF00F002D84CEF00F00500FA6EE9
:1000880001016651FD6E6751FE6EFF6AFA5012005B
:100098004EEF00F004C0DAFF03C0D9FF02C0FBFF37
:0C00A80001C0FAFF5B92110034EF22F05F
:1010000000000000000000000000000000000000E0
:1010100000000000000000000000000000000000D0
:101020000054656D70657261747572203D202530C5
:101030002E3266430D0A00494E46004E414E00696D
:0B1040006E66006E616E006C660000C2
:10104C00000E0001C76F000EC66F42C0D8F043C03F
:10105C00D9F044C0DAF045C0DBF0DBBF3AEF08F062
:10106C0038EF08F050EF08F0000EC76F010EC66F96
:10107C00D8C005F0D9C006F0DAC007F0DBC008F024
:10108C00ADEC21F005C0D8F006C0D9F007C0DAF0FD
:10109C0008C0DBF0000E0001DF6F000EDE6FAAC08F
:1010AC00CAF0ABC0CBF0C651C711D8A460EF08F0A2
:1010BC0062EF08F069EF08F0AEA567EF08F069EF92
:1010CC0008F083EF08F0C651C711D8A470EF08F0F0
:1010DC0072EF08F078EF08F0000EB36F2B0EB26FC2
:1010EC007CEF08F0000EB36F2D0EB26FB2C000F1A2
:1010FC00DE4BDF2BCA07D8A0CB07D8C005F0D9C070
:10110C0006F0DAC007F0DBC008F0D1EC1BF00504E8
:10111C000610D8A494EF08F096EF08F0E1EF08F071
:10112C00BF0E476EFF0E486E4650496E4A6A4750D6
:10113C00492648504A224A5007E11A0E495CD8B059
:10114C00AAEF08F0ACEF08F0BBEF08F0000E0001BE
:10115C00DE25056E010EDF21066E370E076E100EB2
:10116C00086EF0EC1FF0C8EF08F0000E0001DE2551
:10117C00056E010EDF21066E3F0E076E100E086E17
:10118C00F0EC1FF00001FD0ECA27FF0ECB2340C070
:10119C0017F041C018F0000E196E010E1A6ECAC07D
:1011AC001BF0CBC01CF027EC1DF017C040F018C092
:1011BC0041F053EF0EF0D8C005F0D9C006F0DAC0FC
:1011CC0007F0DBC008F0D1EC1BF005500610D8A4DA
:1011DC00F2EF08F0F4EF08F03FEF09F0BF0E476EA6
:1011EC00FF0E486E4650496E4A6A47504926485091
:1011FC004A224A5007E11A0E495CD8B008EF09F0B0
:10120C000AEF09F019EF09F0000E0001DE25056E5A
:10121C00010EDF21066E3B0E076E100E086EF0EC11
:10122C001FF026EF09F0000E0001DE25056E010E01
:10123C00DF21066E430E076E100E086EF0EC1FF0E9
:10124C000001FD0ECA27FF0ECB2340C017F041C092
:10125C0018F0000E196E010E1A6ECAC01BF0CBC02E
:10126C001CF027EC1DF017C040F018C041F053EFF4
:10127C000EF0000E0001E06F000EE16F800EE26FC9
:10128C003F0EE36F000EDD6F000EDC6FD8C005F073
:10129C00D9C006F0DAC007F0DBC008F0000E096E0A
:1012AC00000E0A6E000E0B6E000E0C6EA4EC1EF0FF
:1012BC00D8B063EF09F065EF09F0E8EF09F084EFBF
:1012CC0009F0E0C005F0E1C006F0E2C007F0E3C0B1
:1012DC0008F0000E096E000E0A6E200E0B6E410E09
:1012EC000C6E4BEC13F005C0E0F006C0E1F007C04B
:1012FC00E2F008C0E3F00001DC4BDD2BD8C01EF09F
:10130C00D9C01FF0DAC020F0DBC021F0000E096E4E
:10131C00000E0A6E200E0B6E410E0C6EE0C005F036
:10132C00E1C006F0E2C007F0E3C008F04BEC13F0AC
:10133C0005C022F006C023F007C024F008C025F039
:10134C004FEC1BF0D8B0ADEF09F0AFEF09F067EF41
:10135C0009F0CFEF09F0E0C013F0E1C014F0E2C0E7
:10136C0015F0E3C016F0000E176E000E186E200E6E
:10137C00196E410E1A6E60EC15F013C0E0F014C03B
:10138C00E1F015C0E2F016C0E3F00001DC07D8A0D4
:10139C00DD07D8C01EF0D9C01FF0DAC020F0DBC0CA
:1013AC0021F0E0C022F0E1C023F0E2C024F0E3C061
:1013BC0025F04FEC1BF0D8A0E6EF09F0E8EF09F0B0
:1013CC00B1EF09F046C00BF00C6AE8EC20F00B50C2
:1013DC000001CD6FCDC0CCF0670ECD19D8A4F9EFBC
:1013EC0009F0FBEF09F021EF0AF0AC51AD11D8A4D4
:1013FC0002EF0AF004EF0AF008EF0AF0000EAD6FEE
:10140C00010EAC6FADBF15EF0AF0AD5106E1AC05A6
:10141C00D8B013EF0AF015EF0AF01BEF0AF0000E2C
:10142C00C96F060EC86F2AEF0AF0ACC0C8F0ADC089
:10143C00C9F02AEF0AF0ADBF26EF0AF028EF0AF048
:10144C0015EF0AF01BEF0AF0670ECD19D8A431EF97
:10145C000AF033EF0AF062EF0AF0DDAF41EF0AF069
:10146C00FC0EDC5DFF0EDD59D8A03FEF0AF041EF1A
:10147C000AF060EF0AF0FF0E476EFF0E486EC8C010
:10148C0049F0C9C04AF04750492648504A22DC511D
:10149C00495C4A50800A4B6EDD51800A4B58D8A0EB
:1014AC005AEF0AF05CEF0AF060EF0AF0660ECC6FB0
:1014BC0062EF0AF0650ECC6FC8C0BEF0C9C0BFF0B9
:1014CC00670ECD19D8A46DEF0AF06FEF0AF07FEF1D
:1014DC000AF0660ECC19D8A476EF0AF078EF0AF071
:1014EC0081EF0AF0DDBF7FEF0AF07DEF0AF081EFAC
:1014FC000AF0BE4BBF2B660ECC19D8A488EF0AF0AD
:10150C008AEF0AF0AAEF0AF0DDBF91EF0AF08FEF35
:10151C000AF09DEF0AF0000EE06F000EE16F800EF6
:10152C00E26F3F0EE36F000EDD6F000EDC6F670E97
:10153C00CD19D8B4A4EF0AF0A6EF0AF0AAEF0AF07E
:10154C00DC51BE27DD51BF23000ED76F000ED66FC6
:10155C00D8C0CEF0D9C0CFF0DAC0D0F0DBC0D1F01B
:10156C00E0C0C0F0E1C0C1F0E2C0C2F0E3C0C3F023
:10157C003BEF0BF0CEC013F0CFC014F0D0C015F081
:10158C00D1C016F0E0C017F0E1C018F0E2C019F0BD
:10159C00E3C01AF060EC15F013C02CF014C02DF061
:1015AC0015C02EF016C02FF039EC18F02CC0D2F06C
:1015BC002DC0D3F02EC0D4F02FC0D5F0D2C005F082
:1015CC00D3C006F0D4C007F0D5C008F0CCEC1AF0AC
:1015DC0005C0C4F006C0C5F0CEC01EF0CFC01FF0D1
:1015EC00D0C020F0D1C021F0E0C009F0E1C00AF079
:1015FC00E2C00BF0E3C00CF0D2C005F0D3C006F093
:10160C00D4C007F0D5C008F04BEC13F005C022F0A5
:10161C0006C023F007C024F008C025F00BEC21F025
:10162C001EC0CEF01FC0CFF020C0D0F021C0D1F032
:10163C00E0C013F0E1C014F0E2C015F0E3C016F006
:10164C00000E176E000E186E200E196E410E1A6EDB
:10165C0060EC15F013C0E0F014C0E1F015C0E2F03E
:10166C0016C0E3F00001D64BD72BBE51D65DD75137
:10167C00800A476EBF51800A4758D8A048EF0BF03C
:10168C004AEF0BF0C0EF0AF0E0C005F0E1C006F045
:10169C00E2C007F0E3C008F0000E096E000E0A6EFF
:1016AC00A00E0B6E400E0C6E4BEC13F005C0D2F07E
:1016BC0006C0D3F007C0D4F008C0D5F0CEC01EF0E1
:1016CC00CFC01FF0D0C020F0D1C021F0D2C022F08A
:1016DC00D3C023F0D4C024F0D5C025F04FEC1BF0C0
:1016EC00D8B07BEF0BF07DEF0BF088EF0BF0000E1A
:1016FC000001D26F000ED36F000ED46F000ED56FA9
:10170C00B1EF0BF0CEC005F0CFC006F0D0C007F0A3
:10171C00D1C008F0D2C009F0D3C00AF0D4C00BF08D
:10172C00D5C00CF0A4EC1EF0D8A09FEF0BF0A1EFED
:10173C000BF0B1EF0BF00001C4B1A7EF0BF0A9EF68
:10174C000BF0B1EF0BF0000ED26F000ED36F000E4A
:10175C00D46F000ED56FD8C005F0D9C006F0DAC032
:10176C0007F0DBC008F0D2C009F0D3C00AF0D4C037
:10177C000BF0D5C00CF0EBEC10F005C0CEF006C0B1
:10178C00CFF007C0D0F008C0D1F0CEC01EF0CFC053
:10179C001FF0D0C020F0D1C021F0000E096E000E59
:1017AC000A6E200E0B6E410E0C6EC0C005F0C1C04F
:1017BC0006F0C2C007F0C3C008F04BEC13F005C034
:1017CC0022F006C023F007C024F008C025F04FEC2F
:1017DC001BF0D8A0F4EF0BF0F6EF0BF01FEF0CF0B2
:1017EC000001DC4BDD2BC0C005F0C1C006F0C2C04F
:1017FC0007F0C3C008F0000E096E000E0A6E200E32
:10180C000B6E410E0C6E4BEC13F005C0C0F006C015
:10181C00C1F007C0C2F008C0C3F0660E0001CC19BD
:10182C00D8A41BEF0CF01DEF0CF01FEF0CF0BE4B0F
:10183C00BF2BC0C0E0F0C1C0E1F0C2C0E2F0C3C039
:10184C00E3F0650E0001CC19D8B42FEF0CF031EF9A
:10185C000CF037EF0CF0DCC0BCF0DDC0BDF03BEFA2
:10186C000CF0000EBD6F000EBC6F000EBB6F000EB7
:10187C00BA6F000EB96F000EB86F000ED76F000E66
:10188C00D66F36EF0DF0CEC013F0CFC014F0D0C031
:10189C0015F0D1C016F0E0C017F0E1C018F0E2C0AE
:1018AC0019F0E3C01AF060EC15F013C02CF014C062
:1018BC002DF015C02EF016C02FF039EC18F02CC0FE
:1018CC00D2F02DC0D3F02EC0D4F02FC0D5F0D2C0A2
:1018DC0005F0D3C006F0D4C007F0D5C008F0CCECAE
:1018EC001AF005C0C4F006C0C5F00001AEB981EF16
:1018FC000CF083EF0CF0A0EF0CF0C451C511D8A480
:10190C008AEF0CF08CEF0CF0A0EF0CF0670ECD19F9
:10191C00D8A493EF0CF095EF0CF0A0EF0CF0BDBF3A
:10192C009CEF0CF09AEF0CF0A0EF0CF0B84BB92B2D
:10193C00EAEF0CF0BA51BB11D8A4A7EF0CF0A9EF49
:10194C000CF0D3EF0CF0BDBFB0EF0CF0AEEF0CF021
:10195C00D3EF0CF0000EDE25D96E010EDF21DA6E0E
:10196C002E0EDF6EDE4BDF2BCA07D8A0CB07000E86
:10197C00BB6F010EBA6FD3EF0CF0000EDE25D96EE3
:10198C00010EDF21DA6E300EDF6EDE4BDF2BCA0765
:10199C00D8A0CB07B807D8A0B907B851B911D8A4AB
:1019AC00DAEF0CF0DCEF0CF0C3EF0CF0000EDE25E0
:1019BC00D96E010EDF21DA6EC451300FDF6EDE4BB3
:1019CC00DF2BCA07D8A0CB07CEC01EF0CFC01FF0AC
:1019DC00D0C020F0D1C021F0E0C009F0E1C00AF085
:1019EC00E2C00BF0E3C00CF0D2C005F0D3C006F09F
:1019FC00D4C007F0D5C008F04BEC13F005C022F0B2
:101A0C0006C023F007C024F008C025F00BEC21F031
:101A1C001EC0CEF01FC0CFF020C0D0F021C0D1F03E
:101A2C00E0C013F0E1C014F0E2C015F0E3C016F012
:101A3C00000E176E000E186E200E196E410E1A6EE7
:101A4C0060EC15F013C0E0F014C0E1F015C0E2F04A
:101A5C0016C0E3F00001BC07D8A0BD07D64BD72BAE
:101A6C00BE51D65DD751800A476EBF51800A475888
:101A7C00D8B043EF0DF045EF0DF053EF0DF0DFBF95
:101A8C0051EF0DF0DF5109E14B0EDE5DD8A051EFA7
:101A9C000DF053EF0DF049EF0CF0BA51BB11D8A477
:101AAC005AEF0DF05CEF0DF06DEF0DF0AEA961EF9C
:101ABC000DF063EF0DF06DEF0DF0000EDE25D96E1D
:101ACC00010EDF21DA6E2E0EDF6EDE4BDF2B000EE9
:101ADC00DE25D96E010EDF21DA6E000EDF6E650E8B
:101AEC00CC19D8A47CEF0DF07EEF0DF041EF0EF089
:101AFC00000ED76F4F0ED66F000ED625D96E010E85
:101B0C00D721DA6E000EDF6E000EC76F000EC66FA7
:101B1C00DDBF95EF0DF093EF0DF09DEF0DF0000E86
:101B2C00C76F010EC66FDC6DDD1FD8B0DD2B000E4C
:101B3C00C96F020EC86FCEEF0DF0D607D8A0D7072D
:101B4C00000ED625D96E010ED721DA6EDCC005F059
:101B5C00DDC006F0000E086E0A0E076E4CEC1EF08F
:101B6C000550300FDF6EDCC005F0DDC006F0000E56
:101B7C00086E0A0E076E8AEC1DF005C0DCF006C07C
:101B8C00DDF00001C807D8A0C907CA07D8A0CB0749
:101B9C00DC51DD11D8A4D5EF0DF0D7EF0DF0A3EF8C
:101BAC000DF0C9BFE4EF0DF0C95106E1C805D8B07E
:101BBC00E2EF0DF0E4EF0DF0A3EF0DF0D607D8A097
:101BCC00D707C651C711D8A4EEEF0DF0F0EF0DF00A
:101BDC00F6EF0DF0000EB56F2B0EB46FFAEF0DF0A3
:101BEC00000EB56F2D0EB46F000ED625D96E010EFA
:101BFC00D721DA6EB4C0DFFFCA07D8A0CB07D6074F
:101C0C00D8A0D707BF0E476EFF0E486E4650496EE0
:101C1C004A6A4750492648504A224A5009E11A0E4E
:101C2C00495CD8A01CEF0EF01EEF0EF024EF0EF066
:101C3C00000EB76F650EB66F28EF0EF0000EB76F83
:101C4C00450EB66F000ED625D96E010ED721DA6E71
:101C5C00B6C0DFFFCA07D8A0CB07000EDE25056E85
:101C6C00010EDF21066E000ED625076E010ED72160
:101C7C00086EF0EC1FF040C017F041C018F0000ED9
:101C8C00196E010E1A6ECAC01BF0CBC01CF027ECEB
:101C9C001DF017C040F018C041F012004EC0D9FF23
:101CAC004FC0DAFFDECFF6FFDDCFF7FFF86A080092
:101CBC00F550250AD8A465EF0EF067EF0EF0CEEFC5
:101CCC0010F04EC0D9FF4FC0DAFFDE2A000EDD2225
:101CDC00000E0001AB6F000EAA6FAAC0AEF0ABC035
:101CEC00AFF0AC69AD69000EE56F000EE46FC6EFA6
:101CFC000EF0AE814EC0D9FF4FC0DAFFDE2A000EC7
:101D0C00DD22C6EF0EF0AE8380EF0EF0AE8580EFD5
:101D1C000EF0AE8780EF0EF0AE8980EF0EF0000E65
:101D2C00E56F010EE46FC6EF0EF04EC0D9FF4FC049
:101D3C00DAFFDECFF6FFDDCFF7FFF86A0800F550CB
:101D4C00526E536A5350000AD8B4AFEF0EF095EFB1
:101D5C000EF05250200AD8B48FEF0EF0030AD8B40C
:101D6C0092EF0EF0080AD8B48CEF0EF0060AD8B435
:101D7C007FEF0EF01D0AD8B489EF0EF095EF0EF040
:101D8C00E451E511D8B4CDEF0EF0CFEF0EF09BEF90
:101D9C000EF0AEA1D4EF0EF0D6EF0EF0D7EF0EF0A2
:101DAC00AE934EC0D9FF4FC0DAFFDECFF6FFDDCFCA
:101DBC00F7FFF86A0800F5502E0AD8A4E8EF0EF0E9
:101DCC00EAEF0EF05CEF0FF0000EAD6F000EAC6F93
:101DDC004EC0D9FF4FC0DAFFDE2A000EDD224EC006
:101DEC00D9FF4FC0DAFFDECFF6FFDDCFF7FFF86A81
:101DFC000800F5502A0AD8A406EF0FF008EF0FF0F0
:101E0C0025EF0FF04EC0D9FF4FC0DAFFDE2A000ECF
:101E1C00DD2250C0D9FF51C0DAFFDFCF52F0020EE5
:101E2C00DE26DFCF53F0000EDD2252C0D9FF53C0A7
:101E3C00DAFFDECFACF0DDCFADF05CEF0FF04EC0D3
:101E4C00D9FF4FC0DAFFDECF0CF0DDCF0DF01CEC6C
:101E5C001AF00CC0ACF00DC0ADF03CEF0FF04EC062
:101E6C00D9FF4FC0DAFFDE2A000EDD22D00E526EF3
:101E7C00FF0E536E4EC0D9FF4FC0DAFFDECFF6FF18
:101E8C00DDCFF7FFF86A0800F550546E556A5250D2
:101E9C00542653505522555009E10A0E545CD8A0D3
:101EAC005AEF0FF05CEF0FF035EF0FF04EC0D9FF8B
:101EBC004FC0DAFFDECFF6FFDDCFF7FFF86A080080
:101ECC00F5500B6E0C6AE8EC20F00B500001EA6F39
:101EDC00EA51D8B474EF0FF076EF0FF0B2EF0FF0C9
:101EEC004EC0D9FF4FC0DAFFDECF52F0DDCF53F03A
:101EFC00010E5226000E532252C0F6FF53C0F7FFBC
:101F0C00F86A0800F5500B6E0C6AE8EC20F00B50E8
:101F1C000001EB6FEB51D8B496EF0FF098EF0FF088
:101F2C00B2EF0FF04EC0D9FF4FC0DAFFDECF52F048
:101F3C00DDCF53F0020E5226000E532252C0F6FF94
:101F4C0053C0F7FFF86A0800F5500B6E0C6AE8EC0A
:101F5C0020F00B500001EC6F660EEA19D8A4B9EF13
:101F6C000FF0BBEF0FF0FCEF0FF04EC0D9FF4FC0DE
:101F7C00DAFFDECFF6FFDDCFF7FFF86A0800F5CF0A
:101F8C00EDF04EC0D9FF4FC0DAFFDE2A000EDD2285
:101F9C0050C0D9FF51C0DAFFDFCF52F0040EDE265D
:101FAC00DFCF53F0000EDD2252C0D9FF53C0DAFF51
:101FBC00DECFE6F0DECFE7F0DECFE8F0DECFE9F003
:101FCC004CC040F04DC041F0E6C042F0E7C043F0D9
:101FDC00E8C044F0E9C045F0EDC046F026EC08F04E
:101FEC0040C04CF041C04DF0EAEF10F0EA0E056E27
:101FFC00000E066E470E076E100E086E000E0A6E6F
:10200C00020E096E50EC1CF005500610D8A411EF0E
:10201C0010F013EF10F097EF10F04EC0D9FF4FC037
:10202C00DAFFDECF52F0DDCF53F0010E5226000E58
:10203C00532252C0F6FF53C0F7FFF86A0800F5CFE1
:10204C00EDF0BF0E526EFF0E536E4EC0D9FF4FC057
:10205C00DAFFDECFF6FFDDCFF7FFF86A0800F550A8
:10206C00546E556A5250542653505522555007E120
:10207C001A0E545CD8B045EF10F047EF10F061EF3A
:10208C0010F050C0D9FF51C0DAFFDFCF52F0040E70
:10209C00DE26DFCF53F0000EDD2252C0D9FF53C035
:1020AC00DAFFDECFE6F0DECFE7F0DECFE8F0DECF12
:1020BC00E9F079EF10F050C0D9FF51C0DAFFDFCF53
:1020CC0052F0040EDE26DFCF53F0000EDD2252C09C
:1020DC00D9FF53C0DAFFDECFE6F0DECFE7F0DECF7C
:1020EC00E8F0DECFE9F0020E4EC0D9FF4FC0DAFFA8
:1020FC00DE26000EDD224CC040F04DC041F0E6C0A3
:10210C0042F0E7C043F0E8C044F0E9C045F0EDC050
:10211C0046F026EC08F040C04CF041C04DF0EAEF20
:10212C0010F04EC0D9FF4FC0DAFFDECFF6FFDDCF87
:10213C00F7FFF86A0800F550250AD8A4A8EF10F0AC
:10214C00AAEF10F0C1EF10F04EC0D9FF4FC0DAFF6C
:10215C00DE2A000EDD22000E086E250E076E4CC026
:10216C0009F04DC00AF0F9EC1EF0000E4D6E010E98
:10217C004C6EEAEF10F04EC0D9FF4FC0DAFFDE2AEA
:10218C00000EDD22000E4D6E000E4C6EEAEF10F0CC
:10219C004EC0D9FF4FC0DAFFDECFF6FFDDCFF7FF21
:1021AC00F86A0800F550076E086A4CC009F04DC07B
:1021BC000AF0F9EC1EF04EC0D9FF4FC0DAFFDE2A50
:1021CC00000EDD22BBEF10F012000850800B116ED8
:1021DC0008500824136E07AEF6EF10F0F8EF10F06D
:1021EC00F9EF10F013801350D8B4FFEF10F001EF9B
:1021FC0011F016EF11F01328D8A407EF11F009EF26
:10220C0011F011EF11F0000E056E000E066E000EAF
:10221C00076E000E086E078E000E086E1EEF11F092
:10222C00000E056E000E066E000E076E000E086E98
:10223C000C50800B126E11501218D8B428EF11F0FC
:10224C002AEF11F02BEF11F0118C0C500C24126EA4
:10225C000BAE33EF11F035EF11F036EF11F01280B9
:10226C001250D8B43CEF11F03EEF11F053EF11F0D7
:10227C001228D8A444EF11F046EF11F04EEF11F0F4
:10228C00000E096E000E0A6E000E0B6E000E0C6E28
:10229C000B8E000E0C6E5BEF11F0000E096E000E33
:1022AC000A6E000E0B6E000E0C6E1350125CD8B042
:1022BC0062EF11F064EF11F08BEF11F011AC69EFDC
:1022CC0011F06BEF11F06DEF11F0800E111A13C0BD
:1022DC0014F012C013F014C012F005C014F009C0B1
:1022EC0005F014C009F006C014F00AC006F014C0C2
:1022FC000AF007C014F00BC007F014C00BF008C0B4
:10230C0014F00CC008F014C00CF0000E146E135036
:10231C0012C00DF00E6A0D5E000E0E5A0EBEA0EF2E
:10232C0011F00E5009E11A0E0D5CD8A0A0EF11F0BF
:10233C00A2EF11F0D9EF11F005500610071008109C
:10234C00D8A4ABEF11F0AEEF11F0010EAFEF11F01E
:10235C00000E146E000E056E000E066E000E076E5B
:10236C00000E086E12C013F0E2EF11F014A0C1EFD2
:10237C0011F0C3EF11F0C9EF11F0D890143001092E
:10238C00146ECBEF11F0D890143205A0D0EF11F0F1
:10239C00D2EF11F0D3EF11F0148E0834083207325B
:1023AC0006320532132A1250135CD8A0E0EF11F05C
:1023BC00E2EF11F0BCEF11F011BCE7EF11F0E9EF17
:1023CC0011F029EF12F01350D8A4EFEF11F0F1EF48
:1023DC0011F0FBEF11F0000E056E000E066E000EF4
:1023EC00076E000E086E4AEF13F0095005260A50CE
:1023FC0006220B5007220C50082208A008EF12F0FE
:10240C000AEF12F0B6EF12F014A00FEF12F011EF6A
:10241C0012F017EF12F0D89014300109146E19EF66
:10242C0012F0D890143205A01EEF12F020EF12F02B
:10243C0021EF12F0148E08340832073206320532BE
:10244C00132AB6EF12F00950055C0A5006580B50CF
:10245C0007580850800A0D6E0C50800A0D58D8B0E1
:10246C003AEF12F03CEF12F067EF12F00550095CF6
:10247C000D6E06500A580E6E07500B580F6E085012
:10248C000C58106EFF0E0D24056EFF0E0E20066EFE
:10249C00FF0E0F20076EFF0E1020086E800E111A13
:1024AC00146C1450D8A45DEF12F05FEF12F06FEFC4
:1024BC0012F0010E0526000E0622072208226FEFED
:1024CC0012F00950055E0A50065A0B50075A0C5070
:1024DC00085A0550061007100810D8A478EF12F00F
:1024EC007AEF12F0AFEF12F01450D8A480EF12F084
:1024FC0082EF12F0AFEF12F0000E056E000E066EBA
:10250C00000E076E000E086E4AEF13F0D8900536D9
:10251C0006360736083614AE96EF12F098EF12F026
:10252C0099EF12F0058014A09EEF12F0A0EF12F0BC
:10253C00A4EF12F0D8801436A6EF12F0D89014360F
:10254C001350D8B4ACEF12F0AEEF12F0AFEF12F0B4
:10255C00130607AEB4EF12F0B6EF12F08CEF12F0D8
:10256C00000E126E14AEBDEF12F0BFEF12F0D7EFEB
:10257C0012F014C00DF07F0E0D16D8B4C8EF12F087
:10258C00CAEF12F0CEEF12F0010E126ED7EF12F06E
:10259C0005A0D3EF12F0D5EF12F0D7EF12F0CAEF7F
:1025AC0012F01250D8B4DDEF12F0DFEF12F00AEF98
:1025BC0013F0010E0526000E06220722082208A0A1
:1025CC00EAEF12F0ECEF12F00AEF13F005C00DF089
:1025DC0006C00EF007C00FF008C010F01034103217
:1025EC000F320E320D320DC005F00EC006F00FC0CA
:1025FC0007F010C008F01328D8B407EF13F009EF58
:10260C0013F00AEF13F0132A1328D8B410EF13F0B9
:10261C0012EF13F01AEF13F01350D8A418EF13F0B5
:10262C001AEF13F02CEF13F0000E056E000E066E71
:10263C00000E076E000E086E1350D8A428EF13F08E
:10264C002AEF13F02CEF13F0000E116E13A031EFE4
:10265C0013F033EF13F036EF13F0078E37EF13F060
:10266C00079ED8901330086E11AE3FEF13F041EF78
:10267C0013F042EF13F0088E05C005F006C006F00B
:10268C0007C007F008C008F012000850800B116E4C
:10269C0008500824176E07AE56EF13F058EF13F0DE
:1026AC0059EF13F017801750D8B45FEF13F061EFA8
:1026BC0013F074EF13F01728D8A467EF13F069EF39
:1026CC0013F071EF13F0000E056E000E066E000E87
:1026DC00076E000E086E078E7CEF13F0000E056E71
:1026EC00000E066E000E076E000E086E0C50800B6E
:1026FC00111A0C500C24126E0BAE87EF13F089EFED
:10270C0013F08AEF13F012801250D8B490EF13F03C
:10271C0092EF13F0A5EF13F01228D8A498EF13F052
:10272C009AEF13F0A2EF13F0000E096E000E0A6E72
:10273C00000E0B6E000E0C6E0B8EADEF13F0000E38
:10274C00096E000E0A6E000E0B6E000E0C6E12500F
:10275C00D8B4B3EF13F0B5EF13F0BDEF13F017507F
:10276C00D8A4BBEF13F0BDEF13F0C7EF13F0000EBE
:10277C00056E000E066E000E076E000E086E5FEF03
:10278C0015F00B500502F3CF1CF0F4CF1DF01C50CC
:10279C00136E146A156A166A1D50186E196A1A6A35
:1027AC001B6A0A500602F3CF1CF0F4CF1DF01C502C
:1027BC001326000E1422152216221D501826000E68
:1027CC0019221A221B2209500702F3CF1CF0F4CF56
:1027DC001DF01C501326000E1422152216221D501B
:1027EC001826000E19221A221B2215C016F014C02E
:1027FC0015F013C014F0136A09500602F3CF1CF045
:10280C00F4CF1DF01C5013261D501422000E15225F
:10281C00000E16220A500502F3CF1CF0F4CF1DF067
:10282C001C5013261D501422000E1522000E1622C9
:10283C0015C016F014C015F013C014F0136A09502B
:10284C000502F3CF1CF0F4CF1DF01C5013261D50C5
:10285C001422000E1522000E16220B500602F3CF86
:10286C001CF0F4CF1DF01C5018261D501922000E20
:10287C001A22000E1B220A500702F3CF1CF0F4CFD1
:10288C001DF01C5018261D501922000E1A22000E85
:10289C001B220B500702F3CF1CF0F4CF1DF01C5081
:1028AC000D6E1D500E6E0F6A106A0FC010F00EC028
:1028BC000FF00DC00EF00D6A0D5018260E50192297
:1028CC000F501A2210501B2213C00DF014C00EF022
:1028DC0015C00FF016C010F0190E7AEF14F0D89046
:1028EC0010320F320E320D32E82E75EF14F00D50FF
:1028FC0018260E5019220F501A2210501B2215C0E8
:10290C0016F014C015F013C014F0136A125017C04F
:10291C000DF00E6A0D26000E0E22820E0D241C6E7A
:10292C00FF0E0E201D6EB0EF14F0D890183619362D
:10293C001A361B3616AEA5EF14F0A7EF14F0A8EF5D
:10294C0014F01880D89013361436153616361C062B
:10295C00D8A01D061AAEB5EF14F0B7EF14F09BEF2C
:10296C0014F0000E126E16AEBEEF14F0C0EF14F0A1
:10297C00E4EF14F0FF0E13140D6EFF0E14140E6E14
:10298C00FF0E15140F6E7F0E1614106E0D500E10D8
:10299C000F101010D8B4D5EF14F0D7EF14F0DBEF04
:1029AC0014F0010E126EE4EF14F018A0E0EF14F026
:1029BC00E2EF14F0E4EF14F0D7EF14F01250D8B4A7
:1029CC00EAEF14F0ECEF14F010EF15F0010E1826EE
:1029DC00000E19221A221B221BA0F7EF14F0F9EF9C
:1029EC0014F010EF15F018C00DF019C00EF01AC04D
:1029FC000FF01BC010F0103410320F320E320D32AB
:102A0C000DC018F00EC019F00FC01AF010C01BF05A
:102A1C001C4A1D2A1DBE1BEF15F01D5008E11C2879
:102A2C00D8A01BEF15F01DEF15F027EF15F0000ED9
:102A3C00186E000E196E800E1A6E7F0E1B6E55EFFF
:102A4C0015F01DBE34EF15F01D5006E11C04D8B076
:102A5C0032EF15F034EF15F040EF15F0000E186E54
:102A6C00000E196E000E1A6E000E1B6E000E116E0B
:102A7C0055EF15F01CC017F0FF0E1816FF0E1916A7
:102A8C007F0E1A16000E1B1617A04FEF15F051EF04
:102A9C0015F052EF15F01A8ED89017301B6E11509E
:102AAC001B1218C005F019C006F01AC007F01BC0A5
:102ABC0008F012001650800B236E165016242A6E46
:102ACC0015AE6BEF15F06DEF15F06EEF15F02A806B
:102ADC002A50D8B474EF15F076EF15F08BEF15F093
:102AEC002A28D8A47CEF15F07EEF15F086EF15F0B0
:102AFC00000E136E000E146E000E156E000E166E88
:102B0C00158E000E166E93EF15F0000E136E000E60
:102B1C00146E000E156E000E166E1A50800B231AD2
:102B2C001A501A242B6E19AE9EEF15F0A0EF15F06B
:102B3C00A1EF15F02B802B50D8B4A7EF15F0A9EF0F
:102B4C0015F0BEEF15F02B28D8A4AFEF15F0B1EFB0
:102B5C0015F0B9EF15F0000E176E000E186E000E82
:102B6C00196E000E1A6E198E000E1A6EC6EF15F045
:102B7C00000E176E000E186E000E196E000E1A6EF7
:102B8C001750181019101A10D8A4CFEF15F0D1EF58
:102B9C0015F0E9EF15F0000E136E000E146E000E1A
:102BAC00156E000E166E800E15127F0E1612235027
:102BBC00161213C013F014C014F015C015F016C083
:102BCC0016F02CEF17F02A50D8A4EFEF15F0F1EF18
:102BDC0015F0FBEF15F0000E136E000E146E000EC8
:102BEC00156E000E166E2CEF17F02B502AC01BF032
:102BFC001C6A1B5E000E1C5A7F0E1B24246E000EDA
:102C0C001C20256E13C01FF014C020F015C021F03D
:102C1C0016C022F0000E136E000E146E000E156E10
:102C2C00000E166E000E266E000E276E000E286E1D
:102C3C00000E296E000E2B6E5CEF16F02B50D8B4E4
:102C4C002AEF16F02CEF16F043EF16F0D8901F3643
:102C5C00203621362236D8901336143615361636D1
:102C6C0029AE3BEF16F03DEF16F03EEF16F0138059
:102C7C00D890263627362836293617501F5C185020
:102C8C002058195021581A502258D8A050EF16F03D
:102C9C0052EF16F05BEF16F0298C17501F5E185090
:102CAC00205A1950215A1A50225A2B2A190E2B64C9
:102CBC0062EF16F064EF16F024EF16F01F502010A0
:102CCC0021102210D8B46DEF16F06FEF16F087EFCD
:102CDC0016F0268087EF16F0D8901336143615367A
:102CEC00163629AE7CEF16F07EEF16F07FEF16F05D
:102CFC001380D89026362736283629362406D8A0B5
:102D0C00250615AE8CEF16F08EEF16F072EF16F05E
:102D1C00000E2B6E29AE95EF16F097EF16F0BBEF69
:102D2C0016F0FF0E26141B6EFF0E27141C6EFF0EE2
:102D3C0028141D6E7F0E29141E6E1B501C101D10A6
:102D4C001E10D8B4ACEF16F0AEEF16F0B2EF16F0D2
:102D5C00010E2B6EBBEF16F013A0B7EF16F0B9EF08
:102D6C0016F0BBEF16F0AEEF16F02B50D8B4C1EF47
:102D7C0016F0C3EF16F0E7EF16F0010E1326000E57
:102D8C0014221522162216A0CEEF16F0D0EF16F054
:102D9C00E7EF16F013C01BF014C01CF015C01DF0AB
:102DAC0016C01EF01E341E321D321C321B321BC0CC
:102DBC0013F01CC014F01DC015F01EC016F0244AF0
:102DCC00252A25BEF2EF16F0255008E12428D8A0BC
:102DDC00F2EF16F0F4EF16F0FFEF16F0000E256E82
:102DEC002468000E136E000E146E000E156E000E8D
:102DFC00166E25BE0CEF17F0255006E12404D8B052
:102E0C000AEF17F00CEF17F01AEF17F0000E256E03
:102E1C00000E246E000E136E000E146E000E156E56
:102E2C00000E166E000E236E24C02AF02AA021EF8D
:102E3C0017F023EF17F026EF17F0158E27EF17F08A
:102E4C00159ED8902A30166EDDEF15F01200000E8C
:102E5C00196E000E1E6E000E1D6E000E206E000E02
:102E6C001F6E110E1F24D96E000E2020DA6E000E7C
:102E7C00DF6E1F4A202A20BE4DEF17F0205009E1CB
:102E8C00080E1F5CD8A04DEF17F04FEF17F037EF7F
:102E9C0017F071EC21F00009D8B457EF17F059EF87
:102EAC0017F05CEF17F0000E38EF18F0F00EE5ECB1
:102EBC0021F0000E256E010E246E000E1A6EE0EF4E
:102ECC0017F0000E216E74EC22F0E806D8A471EF16
:102EDC0017F073EF17F074EF17F0218274EC22F0F7
:102EEC00E806D8A47CEF17F07EEF17F07FEF17F011
:102EFC002180030E2118D8A486EF17F088EF17F065
:102F0C008AEF17F059EF17F02150D8B490EF17F063
:102F1C0092EF17F097EF17F0D89021301C6EAEEFB0
:102F2C0017F019500D6E0E6A24500D1807E125503C
:102F3C000E18D8A4A4EF17F0A6EF17F0AAEF17F00D
:102F4C00010E1C6EAEEF17F0000E1C6E24C01AF0B2
:102F5C001C50C4EC20F0010E1B6E24C00DF0FF0EB3
:102F6C000D26070E0D160D280E6EBFEF17F0D8901C
:102F7C001B360E2EBDEF17F01C04D8A4C8EF17F0AB
:102F8C00CAEF17F0DEEF17F0FF0E2424056EFF0ECC
:102F9C002520066E000E086E080E076E8AEC1DF0DA
:102FAC00110E0524D96E000E0620DA6E1B50DF12AE
:102FBC00244A252A25BEECEF17F0255009E1410ED5
:102FCC00245CD8A0ECEF17F0EEEF17F067EF17F0DA
:102FDC001AC019F0000E236E000E226E110E222460
:102FEC00D96E000E2320DA6E1DC00DF01EC00EF03F
:102FFC00D8900D360E36D8900D360E36D8900D363C
:10300C000E36500E0F6E010E106E0D500F260E5018
:10301C00102222500F24E16E23501020E26EDFCFDD
:10302C00E7FF224A232A23BE25EF18F0235009E19B
:10303C00080E225CD8A025EF18F027EF18F0F4EF5B
:10304C0017F01D4A1E2A1EBE35EF18F01E5009E15E
:10305C00020E1D5CD8A035EF18F037EF18F033EFE7
:10306C0017F0010E12009CC03CF09DC03DF09EC0BC
:10307C003EF09FC03FF02CC03CF02DC03DF02EC068
:10308C003EF02FC03FF0810E306EFF0E316E3CC013
:10309C0032F03DC033F03EC034F03FC035F0180E76
:1030AC005DEF18F0D8903532343233323232E82EAC
:1030BC0058EF18F0325030243A6E000E31203B6E2F
:1030CC003BBE72EF18F03B5009E1170E3A5CD8A0EA
:1030DC0072EF18F074EF18F07EEF18F02CC02CF093
:1030EC002DC02DF02EC02EF02FC02FF041EF19F077
:1030FC003BBE83EF18F085EF18F0F5EF18F03AC0EF
:10310C0030F0FF0E316EFF0E326E7F0E336E000EFE
:10311C00346E306694EF18F09CEF18F0343434327F
:10312C00333232323132302E8FEF18F031C036F06C
:10313C0032C037F033C038F034C039F036503C145C
:10314C00306E37503D14316E38503E14326E39505B
:10315C003F14336E3050311032103310D8A4B9EF05
:10316C0018F0BBEF18F0BDEF18F074EF18F03CC07E
:10317C0030F03DC031F03EC032F03FC033F0200E95
:10318C00CDEF18F0D8903332323231323032E82E63
:10319C00C8EF18F03050311032103310D8B4D9EFCA
:1031AC0018F0DBEF18F0E3EF18F036503C263750F0
:1031BC003D2238503E2239503F22361C306E371C8F
:1031CC00316E381C326E391C336E30503C16315017
:1031DC003D1632503E1633503F1639EF19F03CC0B5
:1031EC0030F03DC031F03EC032F03FC033F0200E25
:1031FC0005EF19F0D8903332323231323032E82EBA
:10320C0000EF19F03050311032103310D8A411EFF8
:10321C0019F013EF19F01DEF19F0000E3C6E000EB3
:10322C003D6E000E3E6E000E3F6E39EF19F0D890D9
:10323C003C34306E3D34316E3E34326E3F34336E3E
:10324C003050311032103310D8B42FEF19F031EF59
:10325C0019F039EF19F0000E3C6E000E3D6E800E29
:10326C003E6EBF0E3F6E3CC02CF03DC02DF03EC0FC
:10327C002EF03FC02FF012000D6E0D50D8B449EF58
:10328C0019F04BEF19F06DEF19F008BE52EF19F071
:10329C0050EF19F06DEF19F005C009F006C00AF0F7
:1032AC0007C00BF008C00CF0091E0A1E0B1E0C1EEA
:1032BC00092A000E0A220B220C2209C00FF00AC0A8
:1032CC0010F00BC011F00CC012F075EF19F005C026
:1032DC000FF006C010F007C011F008C012F0055036
:1032EC00061007100810D8A47EEF19F080EF19F023
:1032FC008AEF19F0000E056E000E066E000E076EBA
:10330C00000E086E1BEF1AF0960E0E6E94EF19F06D
:10331C000E2AD8901232113210320F32000E0F14C6
:10332C00096E000E10140A6E000E11140B6EFE0EB8
:10333C0012140C6E09500A100B100C10D8A4A9EF23
:10334C0019F0ABEF19F08EEF19F0B9EF19F00E2A56
:10335C00010E0F26000E102211221222D8901232CA
:10336C00113210320F32000E0F14096E000E1014B1
:10337C000A6E000E11140B6EFF0E12140C6E095017
:10338C000A100B100C10D8A4CEEF19F0D0EF19F0D6
:10339C00ADEF19F0D8EF19F00E06D8900F361036A5
:1033AC001136123611BEDDEF19F0DFEF19F0E7EF31
:1033BC0019F0020E0E60E5EF19F0E7EF19F0D2EFFD
:1033CC0019F00EB0ECEF19F0EEEF19F0EFEF19F079
:1033DC00119ED8900E320EC009F00A6A0B6A0C6A64
:1033EC0009C00CF00B6A0A6A096A09500F120A50DC
:1033FC0010120B5011120C5012120D50D8B409EFC0
:10340C001AF00BEF1AF013EF1AF008BE12EF1AF0C5
:10341C0010EF1AF013EF1AF0128E0FC005F010C057
:10342C0006F011C007F012C008F01200000E156E65
:10343C00000E146E000E136E000E126E28EF1AF0B2
:10344C000C4A0D2A0CC0F6FF0DC0F7FFF86A0800F5
:10345C00F550200AD8B435EF1AF037EF1AF026EFF2
:10346C001AF0F70E0E6EFF0E0F6E0CC0F6FF0DC0AD
:10347C00F7FFF86A0800F550106E116A0E5010260E
:10348C000F501122115009E1050E105CD8A051EF1C
:10349C001AF053EF1AF026EF1AF05DEF1AF0000E47
:1034AC00136E010E126E0C4A0D2A94EF1AF00CC01A
:1034BC00F6FF0DC0F7FFF86A0800F5500E6E0F6AA4
:1034CC000F50000AD8B46DEF1AF094EF1AF00E50AA
:1034DC002B0AD8B459EF1AF0060AD8B455EF1AF0E3
:1034EC0094EF1AF014C005F015C006F0000E086E2B
:1034FC000A0E076E88EC22F00CC0F6FF0DC0F7FF29
:10350C00F86A0800F550055E000E065A300E0524C8
:10351C00146E000E0620156E59EF1AF0D00E0E6EBA
:10352C00FF0E0F6E0CC0F6FF0DC0F7FFF86A080017
:10353C00F550106E116A0E5010260F5011221150BA
:10354C0009E10A0E105CD8A0AEEF1AF0B0EF1AF039
:10355C0078EF1AF012501310D8A4B7EF1AF0B9EF95
:10356C001AF0C7EF1AF014C00EF015C00FF00E1EB3
:10357C000F1E0E4A0F2A0EC00CF00FC00DF0CBEF31
:10358C001AF014C00CF015C00DF0120007340834FA
:10359C000E6E0E50D8A4D5EF1AF0D7EF1AF0E1EF5B
:1035AC001AF0000E056E000E066E000E076E000E71
:1035BC00086E4EEF1BF005C009F006C00AF007C0FC
:1035CC000BF008C00CF0200EF1EF1AF0D8900C3272
:1035DC000B320A320932E82EECEF1AF009500D6E5C
:1035EC00078EFF0E0516FF0E0616FF0E0716000EB1
:1035FC000816960E0E5E0EBE08EF1BF006EF1BF0C3
:10360C001EEF1BF00E50800A970FD8B010EF1BF076
:10361C0012EF1BF014EF1BF0D7EF1AF0D890083212
:10362C000732063205320E3E14EF1BF036EF1BF05C
:10363C001F0E0E6424EF1BF026EF1BF02EEF1BF079
:10364C00D7EF1AF0D89005360636073608360E0630
:10365C000E50D8A434EF1BF036EF1BF028EF1BF004
:10366C000D50D8B43CEF1BF03EEF1BF046EF1BF0B7
:10367C00081E071E061E056C000E062207220822D5
:10368C0005C005F006C006F007C007F008C008F03A
:10369C001200000E1E14266E000E1F14276E800ED4
:1036AC002014286E7F0E2114296E26502710281006
:1036BC002910D8A464EF1BF066EF1BF06EEF1BF023
:1036CC00000E1E6E000E1F6E000E206E000E216E80
:1036DC00000E2214266E000E2314276E800E241466
:1036EC00286E7F0E2514296E2650271028102910BD
:1036FC00D8A483EF1BF085EF1BF08DEF1BF0000EB1
:10370C00226E000E236E000E246E000E256E21AE6E
:10371C0092EF1BF094EF1BF09DEF1BF01E6C1F1E25
:10372C00D8B01F2A201ED8B0202A800E215625AED4
:10373C00A2EF1BF0A4EF1BF0ADEF1BF0226C231ECD
:10374C00D8B0232A241ED8B0242A800E2556000E69
:10375C001E1A000E1F1A000E201A800E211A000EBF
:10376C00221A000E231A000E241A800E251A22503B
:10377C001E5C23501F582450205825502158D8B077
:10378C00CAEF1BF0CCEF1BF0CFEF1BF0D890D0EFB3
:10379C001BF0D8801200A0C00FF0A1C010F0A2C086
:1037AC0011F0A3C012F005C00FF006C010F007C056
:1037BC0011F008C012F00FC009F010C00AF011C0CF
:1037CC000BF012C00CF0180EF1EF1BF0D8900C326D
:1037DC000B320A320932E82EECEF1BF009500D6E59
:1037EC000E6A0D500E10D8A4FEEF1BF000EF1CF06B
:1037FC0020EF1CF0D8900F34096E10340A6E11347F
:10380C000B6E12340C6E09500A100B100C10D8A44D
:10381C0012EF1CF014EF1CF01AEF1CF0000E066EE9
:10382C00020E056E4FEF1CF0000E066E030E056EB9
:10383C004FEF1CF00D280E10D8A427EF1CF029EF29
:10384C001CF04BEF1CF00FC009F010C00AF011C0B7
:10385C000BF012C00CF0090ED89009360A360B3654
:10386C000C36E82E32EF1CF009500A100B100C101D
:10387C00D8B443EF1CF046EF1CF0010E47EF1CF0E0
:10388C00000E056E066A4FEF1CF0000E066E040E5D
:10389C00056E120005C00CF006C00DF007C00EF04E
:1038AC0008C00FF00906D8A00A06092806E10A2864
:1038BC00D8A463EF1CF065EF1CF072EF1CF0000E47
:1038CC00066E000E056EBDEF1CF00C4A0D2A0E4A5A
:1038DC000F2A0906D8A00A060CC0D9FF0DC0DAFFC2
:1038EC00DF50D8B47CEF1CF07EEF1CF0ABEF1CF07B
:1038FC000EC0F6FF0FC0F7FFF86A0800F55000097C
:10390C00D8B48BEF1CF08DEF1CF0ABEF1CF0095012
:10391C000A10D8B494EF1CF096EF1CF0ABEF1CF02F
:10392C000CC0D9FF0DC0DAFFDF500B6E0EC0F6FFD6
:10393C000FC0F7FFF86A0800F5500B18D8B4A9EFC0
:10394C001CF0ABEF1CF06BEF1CF00CC0D9FF0DC0E2
:10395C00DAFFDF500B6E0EC0F6FF0FC0F7FFF86AF0
:10396C000800F5500B5C056E066AD8A0060612001E
:10397C0071EC21F03A6E3A50D8A4C7EF1CF0C9EFA5
:10398C001CF01EEF1DF0500E096E010E0A6E4BEC72
:10399C0020F0440EE5EC21F0080E316E9D0E306ED9
:1039AC00060EE82EFED7302EFCD7312EFAD771EC4E
:1039BC0021F0500E096E010E0A6E4BEC20F0BE0E7B
:1039CC00E5EC21F09FEC20F0386E9FEC20F0396E86
:1039DC003950316E306A3850326E336A305032267C
:1039EC003150332232C005F033C006F0000E06BE53
:1039FC00FF0E076E086E010E42EC19F005C013F0B5
:103A0C0006C014F007C015F008C016F0000E176EB3
:103A1C00000E186E800E196E410E1A6E60EC15F0C9
:103A2C0013C034F014C035F015C036F016C037F0A2
:103A3C0034C02CF035C02DF036C02EF037C02FF02E
:103A4C0012000001AEA12DEF1DF02FEF1DF039EF8C
:103A5C001DF019C010F01AC011F017C012F018C0E8
:103A6C0013F02EEC21F01CBE3EEF1DF040EF1DF0CC
:103A7C0046EF1DF01BC020F01CC021F04AEF1DF0DA
:103A8C00000E216E000E206E000E1F6E000E1E6EBC
:103A9C005CEF1DF0000E086E200E076E17C009F0CB
:103AAC0018C00AF0F9EC1EF01E4A1F2A20501E5CAA
:103ABC001F50800A1D6E2150800A1D58D8A069EF36
:103ACC001DF06BEF1DF050EF1DF00001AEB171EF6A
:103ADC001DF073EF1DF07DEF1DF019C010F01AC032
:103AEC0011F017C012F018C013F02EEC21F019C011
:103AFC0005F01AC006F001EC22F020500524176ED8
:103B0C0021500620186E1200000E0A6E08BE93EFAC
:103B1C001DF091EF1DF099EF1DF0076C081ED8B049
:103B2C00082A010E0A6E06BEA0EF1DF09EEF1DF0D6
:103B3C00A6EF1DF0056C061ED8B0062A010E0A1A57
:103B4C00000E0C6E000E0B6E07500810D8B4B1EFBF
:103B5C001DF0B3EF1DF0DBEF1DF0010E096EBBEF96
:103B6C001DF0D89007360836092A08AEC0EF1DF0B4
:103B7C00C2EF1DF0B7EF1DF0D8900B360C36075086
:103B8C00055C08500658D8A0CEEF1DF0D0EF1DF004
:103B9C00D5EF1DF00750055E0850065A0B80D890E3
:103BAC0008320732092EC2EF1DF00A50D8B4E1EFEB
:103BBC001DF0E3EF1DF0E7EF1DF00B6C0C1ED8B001
:103BCC000C2A0BC005F00CC006F01200840E582411
:103BDC00D96EDA6A000EDA22000EDF6EABA4F9EFB2
:103BEC001DF0FBEF1DF010EF1EF0840E5824D96E63
:103BFC00DA6A000EDA220001DF8202D810EF1EF022
:103C0C000500FA6E01016451FD6E6551FE6EFF6A8E
:103C1C00FA501200ABA215EF1EF017EF1EF02CEFAE
:103C2C001EF0840E5824D96EDA6A000EDA220001D6
:103C3C00DF8402D82CEF1EF00500FA6E01016251F0
:103C4C00FD6E6351FE6EFF6AFA501200840E58240A
:103C5C00D96EDA6A000EDA22DF50D8B438EF1EF0D3
:103C6C003AEF1EF049EF1EF002D847EF1EF00500A8
:103C7C00FA6E01016051FD6E6151FE6EFF6AFA50E1
:103C8C0012004BEF1EF05FEC22F01200000E0A6ED9
:103C9C0006BE55EF1EF053EF1EF05BEF1EF0056CE9
:103CAC00061ED8B0062A010E0A6E08BE62EF1EF080
:103CBC0060EF1EF066EF1EF0076C081ED8B0082AE5
:103CCC0007500810D8B46DEF1EF06FEF1EF093EF95
:103CDC001EF0010E096E77EF1EF0D89007360836ED
:103CEC00092A08AE7CEF1EF07EEF1EF073EF1EF07B
:103CFC000750055C08500658D8A087EF1EF089EFD6
:103D0C001EF08DEF1EF00750055E0850065AD89035
:103D1C0008320732092E7EEF1EF00A50D8B499EF04
:103D2C001EF09BEF1EF09FEF1EF0056C061ED8B028
:103D3C00062A05C005F006C006F01200000E051498
:103D4C000D6E000E06140E6E800E07140F6E7F0E95
:103D5C000814106E0D500E100F101010D8A4B9EFDF
:103D6C001EF0BBEF1EF0C3EF1EF0000E056E000E32
:103D7C00066E000E076E000E086E000E09140D6E16
:103D8C00000E0A140E6E800E0B140F6E7F0E0C14A8
:103D9C00106E0D500E100F101010D8A4D8EF1EF08E
:103DAC00DAEF1EF0E2EF1EF0000E096E000E0A6E46
:103DBC00000E0B6E000E0C6E095005180FE10A5028
:103DCC0006180CE10B50071809E10C500818D8B470
:103DDC00F2EF1EF0F4EF1EF0F7EF1EF0D890F8EFB4
:103DEC001EF0D880120009500A10D8B400EF1FF052
:103DFC0002EF1FF00BEF1FF009500A10D8A409EFC7
:103E0C001FF00BEF1FF010EF1FF00750B7EC22F074
:103E1C0043EF1FF020EE09F00950D9260A50DA22A0
:103E2C00DE50DE10D8B41DEF1FF01FEF1FF03AEF7D
:103E3C001FF020EE09F00950D9260A50DA2210EEB4
:103E4C0003F00950E1260A50E222DE50E65CE6500F
:103E5C00800A0F6EDE50800A0F58D8B038EF1FF072
:103E6C003AEF1FF043EF1FF020EE03F00950D92674
:103E7C000A50DA22DE2A000EDD2212009BEC22F020
:103E8C00060E01016B6F130E6A6FAD0EE82EFED796
:103E9C006A2FFCD76B2FFAD700F000F0F28EF28C61
:103EAC00DAEC22F0BEEC1CF02CC0A4F02DC0A5F076
:103EBC002EC0A6F02FC0A7F0210E0001F66F100E39
:103ECC00F76FA4C0F8F0A5C0F9F0A6C0FAF0A7C02F
:103EDC00FBF04AEC22F0060E01016B6F130E6A6FB9
:103EEC00AD0EE82EFED76A2FFCD76B2FFAD700F059
:103EFC0000F058EF1FF058EF00F09D9AD80E056EA9
:103F0C003B0E066EC6EC22F09D98A00E056E420E7E
:103F1C00066EC1EC22F0080EB86E900EAB6E240E3D
:103F2C00AC6ECF0EAF6E000EB06EDA0E056E450E97
:103F3C00066ED0EC22F0CA0E056E450E066ECBEC6A
:103F4C0022F0D00E056E450E066ED5EC22F0000E5A
:103F5C000001B16F000E5A6E000E596E080EFE6F06
:103F6C00000E586E000E576E000E566E9D8A120093
:103F7C00F0C0F4F0F1C0F5F0000E0001A96F000ED6
:103F8C00A86FDCEF1FF0EEC04CF0EFC04DF0F40E5C
:103F9C004E6E000E4F6EF2C050F0F3C051F054EC68
:103FAC000EF04C500001A8274D50A923F4C0F6FF89
:103FBC00F5C0F7FFF86A0800F5500009D8A4E9EF3E
:103FCC001FF0EBEF1FF0C9EF1FF0A8C0EEF0A9C077
:103FDC00EFF0120007C00BF008C00CF005C00DF09C
:103FEC0006C00EF00B50096E0C500A6E0B4A0C2AD0
:103FFC0009C0F6FF0AC0F7FF000EF86E0DC0D9FF1E
:10400C000EC0DAFF0D4A0E2A0F0EF76403D008001B
:10401C00F55005D0F6CFE9FFF7CFEAFFEF50DF6E92
:10402C00DF50D8A41CEF20F01EEF20F0F8EF1FF0AB
:10403C001200056E0001FE51D8B427EF20F029EFD5
:10404C0020F020EF20F09DB82EEF20F030EF20F084
:10405C0034EF20F005C0ADFF49EF20F09D98940E91
:10406C005A24D96EDA6A000EDA2205C0DFFF5A2A0A
:10407C00070E5A6444EF20F046EF20F048EF20F092
:10408C00000E5A6EFE079D88120071EC21F000099B
:10409C00D8A453EF20F055EF20F075EF20F0550E1B
:1040AC00E5EC21F0000E0C6E000E0B6E0B5009248B
:1040BC00D96E0C500A20DA6EDF50E5EC21F00B4A79
:1040CC000C2A0CBE73EF20F00C5009E1080E0B5CAF
:1040DC00D8A073EF20F075EF20F05CEF20F0120009
:1040EC00010E0B6E200E05180610D8B480EF20F0D0
:1040FC0082EF20F09BEF20F0F70E076EFF0E086E9C
:10410C0005C009F006C00AF00750092608500A221B
:10411C000A5009E1050E095CD8A097EF20F099EF41
:10412C0020F09BEF20F0000E0B6E0BC005F0066A22
:10413C001200000E076E000E096E000E086ED8906D
:10414C00073274EC22F00009D8B4AFEF20F0B1EFD5
:10415C0020F0B2EF20F0078E084A092A09BEC0EF02
:10416C0020F0095009E1080E085CD8A0C0EF20F03F
:10417C00C2EF20F0A5EF20F007501200056E0504E9
:10418C00D8A4CBEF20F0CDEF20F0DBEF20F0DFEC6C
:10419C0022F0040EE82EFED7E2EC22F02A0EE82ED6
:1041AC00FED700F000F0E7EF20F0DFEC22F0280E55
:1041BC00E82EFED7E2EC22F0060EE82EFED700F039
:1041CC0000F01200BF0E0D6EFF0E0E6E0BC00FF046
:1041DC000CC010F00D500F260E501022105007E19D
:1041EC001A0E0F5CD8B0FDEF20F0FFEF20F006EFB9
:1041FC0021F0200E0B100B6E0C500C6E0AEF21F000
:10420C000BC00BF00CC00CF01200000E221A000EAA
:10421C00231A000E241A800E251A1EC005F01FC08A
:10422C0006F020C007F021C008F022C009F023C01E
:10423C000AF024C00BF025C00CF0EBEC10F005C01C
:10424C001EF006C01FF007C020F008C021F01200BD
:10425C00000E166E000E156E3FEF21F014C007F025
:10426C00086A12C009F013C00AF0F9EC1EF0154AE6
:10427C00162A15501024D96E16501120DA6EDF5004
:10428C00146E1450D8A44DEF21F04FEF21F034EF01
:10429C0021F01200080E0001FE6157EF21F059EFDA
:1042AC0021F06FEF21F0940E5924D96EDA6A000ECA
:1042BC00DA22DF50AD6E592A070E596468EF21F0EF
:1042CC006AEF21F06CEF21F0000E596EFE2B70EFAF
:1042DC0021F09D981200DFEC22F0A00EE82EFED704
:1042EC00A00EE82EFED7E2EC22F02E0EE82EFED722
:1042FC0000F000F0B0EC22F0066E880EE82EFED72F
:10430C0000F000F0880EE82EFED700F000F0E2EC92
:10431C0022F006501200BF0E076EFF0E086E05C08D
:10432C0009F006C00AF00750092608500A220A5064
:10433C000AE11A0E095CD8A0A6EF21F0A9EF21F032
:10434C00010EAAEF21F0000E056E066A1200055050
:10435C00061007100810D8B4B6EF21F0B8EF21F012
:10436C00C0EF21F0000E051A000E061A000E071AF7
:10437C00800E081A05C005F006C006F007C007F04D
:10438C0008C008F01200D00E076EFF0E086E05C0B4
:10439C0009F006C00AF00750092608500A220A50F4
:1043AC000AE10A0E095CD8A0DEEF21F0E1EF21F062
:1043BC00010EE2EF21F0000E056E066A1200066E89
:1043CC00000E086E000E076E0650010BC4EC20F0B8
:1043DC00D8900632074A082A08BEFEEF21F0085092
:1043EC0009E1080E075CD8A0FEEF21F000EF22F0E7
:1043FC00EAEF21F0120005C007F006C008F009EF43
:10440C0022F0054A062A05C0D9FF06C0DAFFDF50A4
:10441C00D8A413EF22F015EF22F007EF22F007508B
:10442C00055C056E08500658066E1200000E8D6E67
:10443C00000E8C6E000E896E000E8A6E400E8B6E16
:10444C00070E966E92689368BF0E946E95687E68A0
:10445C001F0E7F6E000E7C6EF18E120001EE00F0CE
:10446C00600EEE6AE806FDE100EE60F0520EEE6AB8
:10447C00E806FDE15A6A596A586A576A566A5B90AF
:10448C005B92000144EF1FF0F80E0101686F000E03
:10449C00696F000E0001EE6F000EEF6FF6C0F0F0CA
:1044AC00F7C0F1F0680EF26F010EF36FBEEC1FF067
:1044BC0012008C0E5824D96EDA6A000EDA22AECFB6
:1044CC00DFFF582A070E58646EEF22F070EF22F0CF
:1044DC0072EF22F0000E586E562A1200DFEC22F01A
:1044EC00040EE82EFED7E2EC22F0060EE82EFED7E4
:1044FC00B0EC22F0066E240EE82EFED700F000F091
:10450C000650120005500702F3CF09F0F4CF0AF061
:10451C0005500802F3500A2606500702F3500A26EB
:10452C0009C005F00AC006F01200EBEC22F0A6EC74
:10453C0022F01CEC22F0BCEC22F083EC1FF01200F9
:10454C00000EC76E080EC66E000EC56E130EC86E3A
:10455C00C69A12009484000E82B4010E056E0550AA
:10456C001200066E06501FEC20F01200600ED36E87
:10457C00000E9B6E120005C0FCF006C0FDF0120090
:10458C0005C066F106C067F1120005C062F106C0F5
:10459C0063F1120005C064F106C065F1120005C09C
:1045AC0060F106C061F112002DEC17F00001B06F44
:1045BC00120094948B94120094948B841200AB98F8
:1045CC00AB8812005FEC22F01200D09E1200120099
:020000040020DA
:08000000FFFFFFFFFFFFFFFF00
:020000040030CA
:0E000000FF081F1EFF0B81FF0FC00FE00F4017
:00000001FF
